{
    "_format": "hh-sol-artifact-1",
    "contractName": "HydraBridge",
    "sourceName": "contracts/HydraMIddleware.sol",
    "abi": [
        {
            "inputs": [
                {
                    "internalType": "address",
                    "name": "polygonRootChainManager",
                    "type": "address"
                },
                {
                    "internalType": "address",
                    "name": "erc20Predicate",
                    "type": "address"
                },
                {
                    "internalType": "address",
                    "name": "hopBridge",
                    "type": "address"
                }
            ],
            "stateMutability": "nonpayable",
            "type": "constructor"
        },
        {
            "anonymous": false,
            "inputs": [
                {
                    "indexed": true,
                    "internalType": "address",
                    "name": "previousOwner",
                    "type": "address"
                },
                {
                    "indexed": true,
                    "internalType": "address",
                    "name": "newOwner",
                    "type": "address"
                }
            ],
            "name": "OwnershipTransferred",
            "type": "event"
        },
        {
            "anonymous": false,
            "inputs": [
                {
                    "indexed": false,
                    "internalType": "address",
                    "name": "account",
                    "type": "address"
                }
            ],
            "name": "Paused",
            "type": "event"
        },
        {
            "anonymous": false,
            "inputs": [
                {
                    "indexed": false,
                    "internalType": "address",
                    "name": "account",
                    "type": "address"
                }
            ],
            "name": "Unpaused",
            "type": "event"
        },
        {
            "inputs": [
                {
                    "internalType": "address",
                    "name": "owner",
                    "type": "address"
                },
                {
                    "internalType": "address",
                    "name": "spender",
                    "type": "address"
                }
            ],
            "name": "checkAllowance",
            "outputs": [
                {
                    "internalType": "uint256",
                    "name": "",
                    "type": "uint256"
                }
            ],
            "stateMutability": "view",
            "type": "function"
        },
        {
            "inputs": [],
            "name": "owner",
            "outputs": [
                {
                    "internalType": "address",
                    "name": "",
                    "type": "address"
                }
            ],
            "stateMutability": "view",
            "type": "function"
        },
        {
            "inputs": [],
            "name": "pause",
            "outputs": [],
            "stateMutability": "nonpayable",
            "type": "function"
        },
        {
            "inputs": [],
            "name": "paused",
            "outputs": [
                {
                    "internalType": "bool",
                    "name": "",
                    "type": "bool"
                }
            ],
            "stateMutability": "view",
            "type": "function"
        },
        {
            "inputs": [],
            "name": "renounceOwnership",
            "outputs": [],
            "stateMutability": "nonpayable",
            "type": "function"
        },
        {
            "inputs": [
                {
                    "internalType": "address",
                    "name": "recipient",
                    "type": "address"
                },
                {
                    "internalType": "uint256",
                    "name": "chainId",
                    "type": "uint256"
                },
                {
                    "internalType": "uint256",
                    "name": "amountOutMin",
                    "type": "uint256"
                },
                {
                    "internalType": "uint256",
                    "name": "deadline",
                    "type": "uint256"
                },
                {
                    "internalType": "address",
                    "name": "relayer",
                    "type": "address"
                },
                {
                    "internalType": "uint256",
                    "name": "relayerFee",
                    "type": "uint256"
                }
            ],
            "name": "sendEthToL2Hop",
            "outputs": [],
            "stateMutability": "payable",
            "type": "function"
        },
        {
            "inputs": [
                {
                    "internalType": "address",
                    "name": "recipient",
                    "type": "address"
                }
            ],
            "name": "sendEthToPolygon",
            "outputs": [],
            "stateMutability": "payable",
            "type": "function"
        },
        {
            "inputs": [
                {
                    "internalType": "address",
                    "name": "rootToken",
                    "type": "address"
                },
                {
                    "internalType": "address",
                    "name": "recipient",
                    "type": "address"
                },
                {
                    "internalType": "uint256",
                    "name": "chainId",
                    "type": "uint256"
                },
                {
                    "internalType": "uint256",
                    "name": "amount",
                    "type": "uint256"
                },
                {
                    "internalType": "uint256",
                    "name": "amountOutMin",
                    "type": "uint256"
                },
                {
                    "internalType": "uint256",
                    "name": "deadline",
                    "type": "uint256"
                },
                {
                    "internalType": "address",
                    "name": "relayer",
                    "type": "address"
                },
                {
                    "internalType": "uint256",
                    "name": "relayerFee",
                    "type": "uint256"
                }
            ],
            "name": "sendToL2Hop",
            "outputs": [],
            "stateMutability": "nonpayable",
            "type": "function"
        },
        {
            "inputs": [
                {
                    "internalType": "address",
                    "name": "recipient",
                    "type": "address"
                },
                {
                    "internalType": "address",
                    "name": "rootToken",
                    "type": "address"
                },
                {
                    "internalType": "uint256",
                    "name": "amount",
                    "type": "uint256"
                },
                {
                    "internalType": "bytes",
                    "name": "depositData",
                    "type": "bytes"
                }
            ],
            "name": "sendToPolygon",
            "outputs": [],
            "stateMutability": "nonpayable",
            "type": "function"
        },
        {
            "inputs": [
                {
                    "internalType": "address",
                    "name": "erc20Predicate",
                    "type": "address"
                }
            ],
            "name": "setErc20Predicate",
            "outputs": [],
            "stateMutability": "nonpayable",
            "type": "function"
        },
        {
            "inputs": [
                {
                    "internalType": "address",
                    "name": "hopBridge",
                    "type": "address"
                }
            ],
            "name": "setHopBridge",
            "outputs": [],
            "stateMutability": "nonpayable",
            "type": "function"
        },
        {
            "inputs": [
                {
                    "internalType": "address",
                    "name": "polygonRootChainManager",
                    "type": "address"
                }
            ],
            "name": "setRootManager",
            "outputs": [],
            "stateMutability": "nonpayable",
            "type": "function"
        },
        {
            "inputs": [
                {
                    "internalType": "address",
                    "name": "newOwner",
                    "type": "address"
                }
            ],
            "name": "transferOwnership",
            "outputs": [],
            "stateMutability": "nonpayable",
            "type": "function"
        },
        {
            "inputs": [],
            "name": "unpause",
            "outputs": [],
            "stateMutability": "nonpayable",
            "type": "function"
        }
    ],
    "bytecode": "0x60806040523480156200001157600080fd5b5060405162001ab938038062001ab9833981810160405281019062000037919062000220565b620000576200004b6200013d60201b60201c565b6200014560201b60201c565b60008060146101000a81548160ff02191690831515021790555082600160006101000a81548173ffffffffffffffffffffffffffffffffffffffff021916908373ffffffffffffffffffffffffffffffffffffffff16021790555081600260006101000a81548173ffffffffffffffffffffffffffffffffffffffff021916908373ffffffffffffffffffffffffffffffffffffffff16021790555080600360006101000a81548173ffffffffffffffffffffffffffffffffffffffff021916908373ffffffffffffffffffffffffffffffffffffffff160217905550505050620002c4565b600033905090565b60008060009054906101000a900473ffffffffffffffffffffffffffffffffffffffff169050816000806101000a81548173ffffffffffffffffffffffffffffffffffffffff021916908373ffffffffffffffffffffffffffffffffffffffff1602179055508173ffffffffffffffffffffffffffffffffffffffff168173ffffffffffffffffffffffffffffffffffffffff167f8be0079c531659141344cd1fd0a4f28419497f9722a3daafe3b4186f6b6457e060405160405180910390a35050565b6000815190506200021a81620002aa565b92915050565b6000806000606084860312156200023657600080fd5b6000620002468682870162000209565b9350506020620002598682870162000209565b92505060406200026c8682870162000209565b9150509250925092565b600062000283826200028a565b9050919050565b600073ffffffffffffffffffffffffffffffffffffffff82169050919050565b620002b58162000276565b8114620002c157600080fd5b50565b6117e580620002d46000396000f3fe6080604052600436106100dd5760003560e01c80638456cb591161007f578063922ffcb411610059578063922ffcb414610244578063ce4d322b1461026d578063f0a67eba14610296578063f2fde38b146102bf576100dd565b80638456cb59146101c55780638b099b23146101dc5780638da5cb5b14610219576100dd565b80635c975abb116100bb5780635c975abb1461013e578063618acabd14610169578063715018a614610185578063829f7e171461019c576100dd565b806310b581ac146100e257806336a6e259146100fe5780633f4ba83a14610127575b600080fd5b6100fc60048036038101906100f7919061124c565b6102e8565b005b34801561010a57600080fd5b50610125600480360381019061012091906110b5565b61038a565b005b34801561013357600080fd5b5061013c61044a565b005b34801561014a57600080fd5b50610153610517565b60405161016091906114f1565b60405180910390f35b610183600480360381019061017e91906110b5565b61052d565b005b34801561019157600080fd5b5061019a6105be565b005b3480156101a857600080fd5b506101c360048036038101906101be919061111a565b610646565b005b3480156101d157600080fd5b506101da610820565b005b3480156101e857600080fd5b5061020360048036038101906101fe91906110de565b6108ee565b604051610210919061158c565b60405180910390f35b34801561022557600080fd5b5061022e610983565b60405161023b919061140d565b60405180910390f35b34801561025057600080fd5b5061026b600480360381019061026691906110b5565b6109ac565b005b34801561027957600080fd5b50610294600480360381019061028f919061119a565b610a6c565b005b3480156102a257600080fd5b506102bd60048036038101906102b891906110b5565b610c4f565b005b3480156102cb57600080fd5b506102e660048036038101906102e191906110b5565b610d0f565b005b600360009054906101000a900473ffffffffffffffffffffffffffffffffffffffff1673ffffffffffffffffffffffffffffffffffffffff1663deace8f534878934898989896040518963ffffffff1660e01b815260040161035097969594939291906115a7565b6000604051808303818588803b15801561036957600080fd5b505af115801561037d573d6000803e3d6000fd5b5050505050505050505050565b610392610e07565b73ffffffffffffffffffffffffffffffffffffffff166103b0610983565b73ffffffffffffffffffffffffffffffffffffffff1614610406576040517f08c379a00000000000000000000000000000000000000000000000000000000081526004016103fd9061156c565b60405180910390fd5b80600260006101000a81548173ffffffffffffffffffffffffffffffffffffffff021916908373ffffffffffffffffffffffffffffffffffffffff16021790555050565b610452610e07565b73ffffffffffffffffffffffffffffffffffffffff16610470610983565b73ffffffffffffffffffffffffffffffffffffffff16146104c6576040517f08c379a00000000000000000000000000000000000000000000000000000000081526004016104bd9061156c565b60405180910390fd5b6104ce610517565b61050d576040517f08c379a00000000000000000000000000000000000000000000000000000000081526004016105049061150c565b60405180910390fd5b610515610e0f565b565b60008060149054906101000a900460ff16905090565b600160009054906101000a900473ffffffffffffffffffffffffffffffffffffffff1673ffffffffffffffffffffffffffffffffffffffff16634faa8a2634836040518363ffffffff1660e01b8152600401610589919061140d565b6000604051808303818588803b1580156105a257600080fd5b505af11580156105b6573d6000803e3d6000fd5b505050505050565b6105c6610e07565b73ffffffffffffffffffffffffffffffffffffffff166105e4610983565b73ffffffffffffffffffffffffffffffffffffffff161461063a576040517f08c379a00000000000000000000000000000000000000000000000000000000081526004016106319061156c565b60405180910390fd5b6106446000610eb0565b565b8373ffffffffffffffffffffffffffffffffffffffff1663095ea7b3600260009054906101000a900473ffffffffffffffffffffffffffffffffffffffff16856040518363ffffffff1660e01b81526004016106a39291906114c8565b602060405180830381600087803b1580156106bd57600080fd5b505af11580156106d1573d6000803e3d6000fd5b505050506040513d601f19601f820116820180604052508101906106f591906112d5565b508373ffffffffffffffffffffffffffffffffffffffff166323b872dd3330866040518463ffffffff1660e01b815260040161073393929190611491565b602060405180830381600087803b15801561074d57600080fd5b505af1158015610761573d6000803e3d6000fd5b505050506040513d601f19601f8201168201806040525081019061078591906112d5565b50600160009054906101000a900473ffffffffffffffffffffffffffffffffffffffff1673ffffffffffffffffffffffffffffffffffffffff1663e3dec8fb868685856040518563ffffffff1660e01b81526004016107e79493929190611451565b600060405180830381600087803b15801561080157600080fd5b505af1158015610815573d6000803e3d6000fd5b505050505050505050565b610828610e07565b73ffffffffffffffffffffffffffffffffffffffff16610846610983565b73ffffffffffffffffffffffffffffffffffffffff161461089c576040517f08c379a00000000000000000000000000000000000000000000000000000000081526004016108939061156c565b60405180910390fd5b6108a4610517565b156108e4576040517f08c379a00000000000000000000000000000000000000000000000000000000081526004016108db9061154c565b60405180910390fd5b6108ec610f74565b565b60003073ffffffffffffffffffffffffffffffffffffffff1663dd62ed3e84846040518363ffffffff1660e01b815260040161092b929190611428565b60206040518083038186803b15801561094357600080fd5b505afa158015610957573d6000803e3d6000fd5b505050506040513d601f19601f8201168201806040525081019061097b91906112fe565b905092915050565b60008060009054906101000a900473ffffffffffffffffffffffffffffffffffffffff16905090565b6109b4610e07565b73ffffffffffffffffffffffffffffffffffffffff166109d2610983565b73ffffffffffffffffffffffffffffffffffffffff1614610a28576040517f08c379a0000000000000000000000000000000000000000000000000000000008152600401610a1f9061156c565b60405180910390fd5b80600360006101000a81548173ffffffffffffffffffffffffffffffffffffffff021916908373ffffffffffffffffffffffffffffffffffffffff16021790555050565b8773ffffffffffffffffffffffffffffffffffffffff1663095ea7b3600360009054906101000a900473ffffffffffffffffffffffffffffffffffffffff16876040518363ffffffff1660e01b8152600401610ac99291906114c8565b602060405180830381600087803b158015610ae357600080fd5b505af1158015610af7573d6000803e3d6000fd5b505050506040513d601f19601f82011682018060405250810190610b1b91906112d5565b508773ffffffffffffffffffffffffffffffffffffffff166323b872dd3330886040518463ffffffff1660e01b8152600401610b5993929190611491565b602060405180830381600087803b158015610b7357600080fd5b505af1158015610b87573d6000803e3d6000fd5b505050506040513d601f19601f82011682018060405250810190610bab91906112d5565b50600360009054906101000a900473ffffffffffffffffffffffffffffffffffffffff1673ffffffffffffffffffffffffffffffffffffffff1663deace8f5878988888888886040518863ffffffff1660e01b8152600401610c1397969594939291906115a7565b600060405180830381600087803b158015610c2d57600080fd5b505af1158015610c41573d6000803e3d6000fd5b505050505050505050505050565b610c57610e07565b73ffffffffffffffffffffffffffffffffffffffff16610c75610983565b73ffffffffffffffffffffffffffffffffffffffff1614610ccb576040517f08c379a0000000000000000000000000000000000000000000000000000000008152600401610cc29061156c565b60405180910390fd5b80600160006101000a81548173ffffffffffffffffffffffffffffffffffffffff021916908373ffffffffffffffffffffffffffffffffffffffff16021790555050565b610d17610e07565b73ffffffffffffffffffffffffffffffffffffffff16610d35610983565b73ffffffffffffffffffffffffffffffffffffffff1614610d8b576040517f08c379a0000000000000000000000000000000000000000000000000000000008152600401610d829061156c565b60405180910390fd5b600073ffffffffffffffffffffffffffffffffffffffff168173ffffffffffffffffffffffffffffffffffffffff161415610dfb576040517f08c379a0000000000000000000000000000000000000000000000000000000008152600401610df29061152c565b60405180910390fd5b610e0481610eb0565b50565b600033905090565b610e17610517565b610e56576040517f08c379a0000000000000000000000000000000000000000000000000000000008152600401610e4d9061150c565b60405180910390fd5b60008060146101000a81548160ff0219169083151502179055507f5db9ee0a495bf2e6ff9c91a7834c1ba4fdd244a5e8aa4e537bd38aeae4b073aa610e99610e07565b604051610ea6919061140d565b60405180910390a1565b60008060009054906101000a900473ffffffffffffffffffffffffffffffffffffffff169050816000806101000a81548173ffffffffffffffffffffffffffffffffffffffff021916908373ffffffffffffffffffffffffffffffffffffffff1602179055508173ffffffffffffffffffffffffffffffffffffffff168173ffffffffffffffffffffffffffffffffffffffff167f8be0079c531659141344cd1fd0a4f28419497f9722a3daafe3b4186f6b6457e060405160405180910390a35050565b610f7c610517565b15610fbc576040517f08c379a0000000000000000000000000000000000000000000000000000000008152600401610fb39061154c565b60405180910390fd5b6001600060146101000a81548160ff0219169083151502179055507f62e78cea01bee320cd4e420270b5ea74000d11b0c9f74754ebdbfc544b05a258611000610e07565b60405161100d919061140d565b60405180910390a1565b6000813590506110268161176a565b92915050565b60008151905061103b81611781565b92915050565b60008083601f84011261105357600080fd5b8235905067ffffffffffffffff81111561106c57600080fd5b60208301915083600182028301111561108457600080fd5b9250929050565b60008135905061109a81611798565b92915050565b6000815190506110af81611798565b92915050565b6000602082840312156110c757600080fd5b60006110d584828501611017565b91505092915050565b600080604083850312156110f157600080fd5b60006110ff85828601611017565b925050602061111085828601611017565b9150509250929050565b60008060008060006080868803121561113257600080fd5b600061114088828901611017565b955050602061115188828901611017565b94505060406111628882890161108b565b935050606086013567ffffffffffffffff81111561117f57600080fd5b61118b88828901611041565b92509250509295509295909350565b600080600080600080600080610100898b0312156111b757600080fd5b60006111c58b828c01611017565b98505060206111d68b828c01611017565b97505060406111e78b828c0161108b565b96505060606111f88b828c0161108b565b95505060806112098b828c0161108b565b94505060a061121a8b828c0161108b565b93505060c061122b8b828c01611017565b92505060e061123c8b828c0161108b565b9150509295985092959890939650565b60008060008060008060c0878903121561126557600080fd5b600061127389828a01611017565b965050602061128489828a0161108b565b955050604061129589828a0161108b565b94505060606112a689828a0161108b565b93505060806112b789828a01611017565b92505060a06112c889828a0161108b565b9150509295509295509295565b6000602082840312156112e757600080fd5b60006112f58482850161102c565b91505092915050565b60006020828403121561131057600080fd5b600061131e848285016110a0565b91505092915050565b61133081611638565b82525050565b61133f8161164a565b82525050565b60006113518385611616565b935061135e838584611680565b6113678361168f565b840190509392505050565b600061137f601483611627565b915061138a826116a0565b602082019050919050565b60006113a2602683611627565b91506113ad826116c9565b604082019050919050565b60006113c5601083611627565b91506113d082611718565b602082019050919050565b60006113e8602083611627565b91506113f382611741565b602082019050919050565b61140781611676565b82525050565b60006020820190506114226000830184611327565b92915050565b600060408201905061143d6000830185611327565b61144a6020830184611327565b9392505050565b60006060820190506114666000830187611327565b6114736020830186611327565b8181036040830152611486818486611345565b905095945050505050565b60006060820190506114a66000830186611327565b6114b36020830185611327565b6114c060408301846113fe565b949350505050565b60006040820190506114dd6000830185611327565b6114ea60208301846113fe565b9392505050565b60006020820190506115066000830184611336565b92915050565b6000602082019050818103600083015261152581611372565b9050919050565b6000602082019050818103600083015261154581611395565b9050919050565b60006020820190508181036000830152611565816113b8565b9050919050565b60006020820190508181036000830152611585816113db565b9050919050565b60006020820190506115a160008301846113fe565b92915050565b600060e0820190506115bc600083018a6113fe565b6115c96020830189611327565b6115d660408301886113fe565b6115e360608301876113fe565b6115f060808301866113fe565b6115fd60a0830185611327565b61160a60c08301846113fe565b98975050505050505050565b600082825260208201905092915050565b600082825260208201905092915050565b600061164382611656565b9050919050565b60008115159050919050565b600073ffffffffffffffffffffffffffffffffffffffff82169050919050565b6000819050919050565b82818337600083830152505050565b6000601f19601f8301169050919050565b7f5061757361626c653a206e6f7420706175736564000000000000000000000000600082015250565b7f4f776e61626c653a206e6577206f776e657220697320746865207a65726f206160008201527f6464726573730000000000000000000000000000000000000000000000000000602082015250565b7f5061757361626c653a2070617573656400000000000000000000000000000000600082015250565b7f4f776e61626c653a2063616c6c6572206973206e6f7420746865206f776e6572600082015250565b61177381611638565b811461177e57600080fd5b50565b61178a8161164a565b811461179557600080fd5b50565b6117a181611676565b81146117ac57600080fd5b5056fea264697066735822122095db6290f24fb4101190b4ccd58d973ad359a20f8a562690f8ba8bbc5bff476664736f6c63430008040033",
    "linkReferences": {},
    "deployedLinkReferences": {}
}